{
  "contractName": "TodoList",
  "abi": [
    {
      "inputs": [],
      "payable": false,
      "stateMutability": "nonpayable",
      "type": "constructor"
    },
    {
      "constant": true,
      "inputs": [
        {
          "internalType": "uint256",
          "name": "",
          "type": "uint256"
        }
      ],
      "name": "tasks",
      "outputs": [
        {
          "internalType": "uint256",
          "name": "id",
          "type": "uint256"
        },
        {
          "internalType": "string",
          "name": "content",
          "type": "string"
        },
        {
          "internalType": "bool",
          "name": "completed",
          "type": "bool"
        }
      ],
      "payable": false,
      "stateMutability": "view",
      "type": "function"
    },
    {
      "constant": false,
      "inputs": [
        {
          "internalType": "string",
          "name": "_content",
          "type": "string"
        }
      ],
      "name": "createTask",
      "outputs": [],
      "payable": false,
      "stateMutability": "nonpayable",
      "type": "function"
    }
  ],
  "bytecode": "0x60806040526000805534801561001457600080fd5b5060408051808201909152600e81527f436865636b206f75742064617070000000000000000000000000000000000000602082015261005b906001600160e01b0361006016565b610167565b60008054600190810180835560408051606081018252828152602080820187815282840187905293865284815291909420845181559151805192936100ad939085019291909101906100cc565b50604091909101516002909101805460ff191691151591909117905550565b828054600181600116156101000203166002900490600052602060002090601f016020900481019282601f1061010d57805160ff191683800117855561013a565b8280016001018555821561013a579182015b8281111561013a57825182559160200191906001019061011f565b5061014692915061014a565b5090565b61016491905b808211156101465760008155600101610150565b90565b610375806101766000396000f3fe608060405234801561001057600080fd5b50600436106100365760003560e01c8063111002aa1461003b5780638d977672146100e3575b600080fd5b6100e16004803603602081101561005157600080fd5b81019060208101813564010000000081111561006c57600080fd5b82018360208201111561007e57600080fd5b803590602001918460018302840111640100000000831117156100a057600080fd5b91908080601f01602080910402602001604051908101604052809392919081815260200183838082843760009201919091525092955061018a945050505050565b005b610100600480360360208110156100f957600080fd5b50356101f6565b604051808481526020018060200183151515158152602001828103825284818151815260200191508051906020019080838360005b8381101561014d578181015183820152602001610135565b50505050905090810190601f16801561017a5780820380516001836020036101000a031916815260200191505b5094505050505060405180910390f35b60008054600190810180835560408051606081018252828152602080820187815282840187905293865284815291909420845181559151805192936101d7939085019291909101906102a5565b50604091909101516002909101805460ff191691151591909117905550565b600160208181526000928352604092839020805481840180548651600296821615610100026000190190911695909504601f810185900485028601850190965285855290949193929091908301828280156102925780601f1061026757610100808354040283529160200191610292565b820191906000526020600020905b81548152906001019060200180831161027557829003601f168201915b5050506002909301549192505060ff1683565b828054600181600116156101000203166002900490600052602060002090601f016020900481019282601f106102e657805160ff1916838001178555610313565b82800160010185558215610313579182015b828111156103135782518255916020019190600101906102f8565b5061031f929150610323565b5090565b61033d91905b8082111561031f5760008155600101610329565b9056fea265627a7a723158204429f907fb4cb2fdfe7b5851d21b49d0e7b227f6423b68b439a2be47326c2a7364736f6c634300050c0032",
  "source": "pragma solidity ^0.5.0;\n\ncontract TodoList {\n  uint taskCount = 0;\n\n  struct Task {\n    uint id;\n    string content;\n    bool completed;\n  }\n\n  mapping(uint => Task) public tasks;\n\n  constructor() public {\n    createTask(\"Check out dapp\");\n  }\n\n  function createTask(string memory _content) public {\n    taskCount ++;\n    tasks[taskCount] = Task(taskCount, _content, false);\n  }\n}\n",
  "sourcePath": "D:/MyProjects/cryptoTodo/contracts/TodoList.sol",
  "compiler": {
    "name": "solc",
    "version": "0.5.12+commit.7709ece9.Emscripten.clang"
  },
  "schemaVersion": "3.0.18",
  "updatedAt": "2022-03-16T19:34:42.567Z",
  "networkType": "ethereum",
  "devdoc": {
    "methods": {}
  },
  "userdoc": {
    "methods": {}
  }
}